:020000040800F2
:1000000000200020E1260008F1240008F324000865
:1000100000000000000000000000000000000000E0
:10002000000000000000000000000000F5240008AF
:100030000000000000000000F7240008F924000878
:100040003127000831270008312700083127000830
:100050003127000801250008312700083127000852
:10006000312700083127000831270008E125000862
:100070003127000831270008312700083127000800
:100080003127000831270008000000003127000850
:1000900031270008312700083127000831270008E0
:1000A00031270008312700083127000831270008D0
:1000B000F1250008000000003127000800000000C2
:1000C00010B5064C2378002B07D1054B002B02D02E
:1000D000044800E000BF0123237010BD5800002039
:1000E00000000000A0270008044B10B5002B03D02F
:1000F0000349044800E000BF10BDC04600000000F6
:100100005C000020A02700080023C25C0133002A05
:10011000FBD1581E7047000002B4714649084900DF
:10012000095649008E4402BC7047C04602B471466D
:1001300049084900095C49008E4402BC7047C0462A
:10014000002243088B4274D303098B425FD3030A16
:100150008B4244D3030B8B4228D3030C8B420DD329
:10016000FF22090212BA030C8B4202D312120902B7
:1001700065D0030B8B4219D300E0090AC30B8B42F5
:1001800001D3CB03C01A5241830B8B4201D38B03A3
:10019000C01A5241430B8B4201D34B03C01A524148
:1001A000030B8B4201D30B03C01A5241C30A8B428B
:1001B00001D3CB02C01A5241830A8B4201D38B0276
:1001C000C01A5241430A8B4201D34B02C01A52411A
:1001D000030A8B4201D30B02C01A5241CDD2C3098C
:1001E0008B4201D3CB01C01A524183098B4201D308
:1001F0008B01C01A524143098B4201D34B01C01AF3
:10020000524103098B4201D30B01C01A5241C3086A
:100210008B4201D3CB00C01A524183088B4201D3D9
:100220008B00C01A524143088B4201D34B00C01AC5
:100230005241411A00D20146524110467047FFE731
:1002400001B5002000F006F802BDC0460029F7D035
:1002500076E770477047C04670B50500FA200D4B31
:1002600080001978FFF76CFF0B4B01001868FFF74F
:1002700067FF00F085F804000120002C09D1032D50
:1002800007D802382200290000F03EF82000034B76
:100290001D6070BD000000205400002004000020FC
:1002A0001023064A10B5116800200B431360FFF7B6
:1002B000D3FF02F005F9002010BDC0460020024027
:1002C000034A044B11681B785B1813607047C046E3
:1002D0007C00002000000020014B18687047C046D9
:1002E0007C00002070B50400FFF7F6FF0500631CDA
:1002F00002D0044B1B78E418FFF7EEFF401B84424A
:10030000FAD870BD0000002070B58901002812DB0A
:100310008308134A03249B009B18FF222040A0401F
:100320001400C025844011408140AD005E59A643B1
:100330003143595170BD03240F23C0B20340204004
:10034000A040FC342500214085408140083B054AFF
:100350009B089B009B18DA69AA431143D961E9E71E
:1003600000E100E000ED00E0002805DB1F2318405D
:100370001E3B8340014A13607047C04600E100E025
:10038000094A431E012093420DD8C021074A08485C
:100390005360036A09061B021B0A0B430362002019
:1003A0000723906013607047FFFFFF0010E000E03C
:1003B00000ED00E070B504000120002C24D00223E1
:1003C0002068A51CEB770268104BA1681A4063688F
:1003D0000B43E1680B4321690B4361690B43A1693E
:1003E0000B43E1690B4313430360094B1421C0180D
:1003F000FFF7A6FE074B80002064E3630020012383
:10040000A063E418EB77E07770BDC0460FC0FFFF34
:10041000F8FFFDBF0000024070B5841CE37F022B93
:1004200004D004238363033B180070BD0E210368CE
:10043000056C1A688A431A60012219689143196091
:100440001100A940C36B5960E27700248318426B06
:10045000DC771300A242E7D090472300E4E7F8B529
:1004600004273E00016CC26B8E40156803681C684F
:100470002E420DD03C420BD01968890602D419686F
:10048000B9431960C36A5660002B19D0984717E02A
:1004900002273E008E402E4213D03C4211D01968F4
:1004A000890606D40A241968A14319600121C319D9
:1004B000D97756600022431CDA77836A9342E5D1EC
:1004C000F8BD082637008F403D42F9D03442F7D0BE
:1004D0000E251C68AC431C6001231C008C4054603A
:1004E000821C8363D3770022C318DA77036BE5E7B6
:1004F000F0B50B6887B0029300230191029ADA40AD
:1005000001D107B0F0BD01229A4003920399029AEB
:100510000A40009200D18CE0019A10215268160026
:100520008E43022E0ED107251D40AD000139A94092
:10053000DC08A4000419276A8F4301990969A940BE
:100540000F43276203245F00BC40E4430568013E7B
:100550002540AC4603251540BD4061460D4305606E
:10056000012E0FD801998668CD682640BD403543DD
:1005700085604668039915098E4301210D409D4011
:1005800035434560C56801992C408D688021BD4088
:1005900049052C43C4600A424BD00121264C032656
:1005A000A5691E400D43A561A4699D080C400594F2
:1005B000059C0F242149AD00B6006D18B440902170
:1005C000AF68C905A743002488420CD01C490134F8
:1005D000884208D01B490134884204D01A490334A8
:1005E000884200D1023CB44000993C430E00AC600C
:1005F000164CCD4327683E43D10301D43E002E4024
:1006000026606768009E3E43910301D43E002E4061
:100610006660A768009E3E43D10201D43E002E4092
:10062000A660E668009F3743920201D42E4037004F
:10063000E760013362E7C04600100240000001405D
:100640000004004800080048000C00480004014075
:10065000002A01D0816170478162FCE77047000089
:10066000044B10B55A69104202D05861FFF7F6FFEB
:1006700010BDC0460004014003689A69920701D585
:1006800000229A6201229969114202D199690A43B2
:100690009A61704770B5049E89053343890D1943EB
:1006A00080230468DB00700D1840044B6568120459
:1006B0001843854311432943616070BDFF63FF0305
:1006C000F8B504000E0017001D002268936933403E
:1006D0009B1B59424B41BB4201D0002017E06B1CD1
:1006E000F4D0FFF7F9FD069BC01A854201D3002D17
:1006F000EBD12022636C0120134363642300413358
:100700001A70220000234232403413702370F8BD67
:10071000F8B503680400986910230E00170018400C
:100720002025002818D1F8BD721C16D0FFF7D4FD83
:10073000C01B864201D3002E0ED12022636C1343CE
:100740006364230041331A70220000234232403494
:10075000137001202370E6E723689A692A42E3D0E8
:1007600010222000DA61DD61FFF786FF226806496A
:1007700053680B4053600423626C1343636423008B
:1007800041331D70E0E7C04600E800FEF8B5040004
:100790000D001600022723689B693B4201D0002010
:1007A000F8BD320029002000FFF7B2FF002815D164
:1007B0006B1CF0D0FFF790FD801B854201D3002D0C
:1007C000E9D12022636C13436364230041331A7020
:1007D0002200002342324034137023700120DFE7EF
:1007E000F8B504000D001600202723689B693B42E2
:1007F00001D00020F8BD320029002000FFF788FF5B
:10080000002813D1FFF768FD801B854201D3002D1E
:10081000EBD12022636C13436364230041331A70CD
:100820002200002342324034137023700120E1E79C
:10083000F8B504000D001700042623689B693342B5
:1008400011D13A0029002000FFF762FF00281AD1D9
:10085000202123689A690A4217D09A69324204D04B
:10086000228D002A01D00020F8BD2021D9615A68CC
:100870000E4802405A602200002341326364117026
:100880004034537023700120EEE7FFF725FDC01BB5
:10089000854201D3002DD0D12022636C13436364C1
:1008A000230041331A7040340023EBE700E800FED8
:1008B00070B504000120002C3FD0250041352B7875
:1008C000DBB2002B05D1220040321370200001F072
:1008D000BBFC242301212B702368E0681A68A668FA
:1008E0008A431A6061681A4A0A401A619968194A6B
:1008F00011409960012821D180210902314399607A
:100900005868154901435960D96800200A40DA60E7
:10091000616922690A43A16909020A43DA60216A0E
:10092000E2690A431A60012219680A431A60202307
:1009300060642B7020634234207070BD84210902F2
:10094000314399600228DBD1802109015960D7E742
:10095000FFFFFFF0FF7FFFFF00800002F0B5050002
:1009600087B003910492059341352B78040002204F
:10097000202B14D1230040331A78012A0FD00126EE
:100980001E70FFF7A9FC8021070000901923320098
:1009900009022000FFF794FE002802D0012007B0D2
:1009A000F0BD21232B702500113B42352B70049B99
:1009B000606463626B469B8A60636385628D304BC3
:1009C000FF2A21D9FF222285009380235B0403990B
:1009D0002000FFF75FFEFF26638D3A000C99200090
:1009E000002B19D1FFF7FCFE0028D7D12021236866
:1009F000244ED9615A6832405A6023004034413352
:100A0000197028702070CAE7628D92B22285009317
:100A10008023D2B29B04DAE7FFF7B8FE0028BDD1ED
:100A2000636A22681978013391626362638D228D53
:100A3000013B9BB26385013A638D92B22285002B04
:100A4000CAD0002AC8D100970C9B80212000FFF754
:100A500037FE0028A2D1638DFF2B09D98023FF2206
:100A600026855B04009003992000FFF713FEB3E78F
:100A70008023628D9B0492B22285D2B20090F2E76D
:100A80000020008000E800FEF0B5050087B003916B
:100A90000492059341352B7804000220202B14D1B9
:100AA000230040331A78012A0FD001261E70FFF769
:100AB00013FC802107000090192332000902200056
:100AC000FFF7FEFD002802D0012007B0F0BD222371
:100AD0002B702500123B42352B70049B60646362CF
:100AE0006B469B8A60636385628D314BFF2A21D9F7
:100AF000FF222285009380235B0403992000FFF7E7
:100B0000C9FDFF26638D3A000C992000002B19D1F6
:100B1000FFF766FE0028D7D120212368254ED96132
:100B20005A6832405A6023004034413319702870AB
:100B30002070CAE7628D92B2228500938023D2B2E0
:100B40009B04DAE7FFF774FE0028BDD12368626AD0
:100B50005B6A1370636A228D01336362638D013AAD
:100B6000013B9BB26385638D92B22285002BC9D075
:100B7000002AC7D100970C9B80212000FFF7A0FD21
:100B80000028A1D1638DFF2B09D98023FF22268560
:100B90005B04009003992000FFF77CFDB2E78023FF
:100BA000628D9B0492B22285D2B20090F2E7C046D9
:100BB0000024008000E800FEF0B5040041342278F3
:100BC0000300D2B20220202A18D11D0040352E7811
:100BD000012E13D01B68223020701E6823388643F4
:100BE0001E601E68064F3E401E601E68314319603D
:100BF000196808431860002022702870F0BDC046B4
:100C0000FFEFFFFFF0B5050041352A780300D2B2AF
:100C10000220202A17D11C0040342678012E12D041
:100C20001B68223028701E68233886431E601E68A9
:100C3000054F09023E4031431960196808431860A6
:100C400000202A702070F0BDFFF0FFFFF0B5040017
:100C500085B0002802D1012005B0F0BD0368DB0794
:100C60002ED423689B077ED423681B0700D5BAE0E7
:100C700023685B0700D5DDE02368DB061AD56269CF
:100C8000B44D0423012A00D049E1696B02260B43CD
:100C90006B636B6B1A436A63FFF71EFB07006B6B9A
:100CA000334200D134E1F8216A6BA3698A43DB0047
:100CB00013436B63236A002B00D057E10020CBE77E
:100CC0000C21A44D6A680A40042A06D06B680B40C8
:100CD000082B09D16B68DB0306D52B689B03C0D5B5
:100CE0006368002BBDD1B6E76368012B13D1802365
:100CF0002A685B0213432B60FFF7EEFA8026070099
:100D0000B6022B683342ACD1FFF7E6FAC01B642869
:100D1000F7D90320A0E7002B15D12B688E4A802637
:100D200013402B602B688D4AB60213402B60FFF7EF
:100D3000D3FA07002B68334293D0FFF7CDFAC01BDC
:100D40006428F7D9E5E7052B05D180232A68DB0263
:100D500013432B60CBE72B687F4A13402B602B6833
:100D60007E4A1340C7E70C227A4D6B68134206D0C7
:100D70006B681340082B11D16B68DB030ED42B6812
:100D80009B0703D5E368012B00D064E7F8212A68AC
:100D900023698A43DB0013432B6065E7E268012384
:100DA000002A0FD02A68022613432B60FFF794FA1B
:100DB00007002B683342E9D1FFF78EFAC01B0228E7
:100DC000F7D9A6E72A6802269A432A60FFF784FA31
:100DD00007002B68334200D146E7FFF77DFAC01BBE
:100DE0000228F6D995E7E26901235A4D002A10D06E
:100DF0006A6A022613436B62FFF76EFA07006B6A9A
:100E0000334200D034E7FFF767FAC01B0228F6D957
:100E10007FE76A6A02269A436A62FFF75DFA070073
:100E20006B6A334200D123E7FFF756FAC01B022852
:100E3000F6D96EE780220021464D5205EB690091FC
:100E4000134208D1EB691343EB61EB691340039341
:100E5000039B012300938027414E7F0033683B4270
:100E600006D0A368012B13D12A6A13432B6230E00A
:100E700033683B433360FFF72FFA019033683B42FE
:100E8000EFD1FFF729FA019BC01A6428F6D940E791
:100E90000122002B14D12B6A022793432B622B6A69
:100EA000033293432B62FFF717FA06002B6A3B428B
:100EB00025D0FFF711FA2B4B801B9842F6D928E773
:100EC000052B0BD1296A013B0B432B622B6A1A437A
:100ED0002A62FFF701FA022706000DE02B6A93430E
:100EE00004222B622B6A9343C0E7FFF7F5F91D4BF1
:100EF000801B984200D90CE72B6A3B42F5D0009B3F
:100F0000012B00D0B8E6EB69174A1340EB61B3E65A
:100F1000FFF7E2F9C01B022800D8C0E6F9E6053267
:100F200003D16A6B9A436A63BDE66A6B0226134378
:100F300001226B636B6B93436B63FFF7CDF9070083
:100F40006B6B334200D1B5E6FFF7C6F9C01B022830
:100F5000F6D9DEE600100240FFFFFEFFFFFFFBFFB9
:100F60000070004088130000FFFFFFEF0C20354A9F
:100F7000516815000140082947D0334A022B32D16D
:100F80002B68802613402B60FFF7A6F90700B604F4
:100F90002B68334221D10F22EB6A9343E26A134359
:100FA000EB62616AA36A6A680B43284980240A409D
:100FB00013436B6080232A685B0413432B60FFF7A5
:100FC0008BF90600A4042B68234200D076E6FFF7D5
:100FD00083F9801B0228F6D99BE6FFF77DF9C01B39
:100FE0000228D5D995E62B68802413402B60FFF7A3
:100FF00073F90600A4042B68234200D15EE6FFF7D4
:101000006BF9801B0228F6D983E61800012B00D16A
:1010100022E680215368656A4902D26A194001209C
:10102000A94200D018E60F210A40E16A8A4200D0A6
:1010300012E6F02080030340A06A1B1A581E834169
:10104000D8B209E600100240FFFFFFFEFFFFC2FF1B
:1010500070B5144C88B010222100684601F08EFB58
:10106000210004AD10221031280001F087FB0C2272
:101070000D4E73681A40082A11D10F206A46990C48
:101080000140545CF26A0240A95CDB0305D50748C5
:10109000FFF756F8604308B070BD0548FAE703480B
:1010A000F9E7C046B82700080010024000127A0095
:1010B00000093D00F7B505000F00002801D101200F
:1010C000FEBD0122374C236813408B421CD3296894
:1010D0008B0722D4CB072FD4012322681A409742D2
:1010E00051D32B68304C5B0754D4FFF7B1FF6368D2
:1010F0002E4A1B061B0FD35CD8402D4B18600020D6
:10110000FFF7AAF80020DBE7236893430B43236033
:10111000236813409942D2D1D9E7234A4B0704D51B
:10112000E0235068DB0003435360F020536883439F
:10113000A86803435360CDE71B4E6A683368012AF1
:1011400019D19B03BBD5032173688B431343736091
:10115000FFF7C2F801900C2372681A406B689B007D
:101160009A42B9D0FFF7B8F8019BC01A114B9842C8
:10117000F1D90320A4E7022A02D19B01E3D49EE720
:101180009B07E0D49BE722689A43226022681A42B8
:1011900095D1A6E76368084A1340EA681343636081
:1011A000A3E7C04600200240001002408528000846
:1011B0005400002088130000FFF8FFFF044B054A8D
:1011C0005B685B055B0FD35C034A1068D8407047CF
:1011D000001002409528000854000020F0B5036874
:1011E00085B00500DB0328D5802200213B4C520549
:1011F000E3690091134208D1E3691343E361E369B2
:1012000013400393039B012300938027344E7F00F8
:1012100033683B422FD0C022236A92001340314EE4
:101220003BD1236A1E406B681E43009B2662012B44
:1012300003D1E3692C4A1340E3612A68D30706D53A
:10124000032026490B6B8343A86803430B63930673
:1012500006D5102021490B6B8343E86803430B63D9
:101260000020530517D540211C4A136B8B43296975
:101270000B4313630FE033683B433360FFF72CF8F5
:10128000019033683B42C6D1FFF726F8019BC01A94
:101290006428F6D9032005B0F0BD69680A4093427E
:1012A000BFD08023226A206A11005B0203432362BD
:1012B000236A0E483140034023622162D307B0D530
:1012C000FFF70AF807000222236A1342A9D1FFF7A9
:1012D00003F8074BC01B9842F5D9DBE7001002402A
:1012E00000700040FFFCFFFFFFFFFFEFFFFFFEFF6E
:1012F00088130000E021036810B55A688A435A60D9
:1013000082224168520091420CD1802182680902F8
:101310008A4203D08021C9008A4203D140211A6841
:101320008A431A608021826A89018A4206D119683B
:10133000074C2140196019680A431A600300012212
:101340005D331A7000235C300370032010BDC0466B
:10135000FFDFFFFFF8B504000D00170080262368AB
:101360009868304009D06A1CFAD0FEF7B5FFC01B60
:101370008542F4D82000FFF7BDFFF8BDF7B5C027C0
:1013800005000C0016000193FF002B6898682040B0
:101390000DD0BC4200D11A7B721CF7D0FEF79CFF27
:1013A000019BC01A8642F0D82800FFF7A3FFFEBDBC
:1013B00070B513000D0016000A00C0214901040099
:1013C000FFF7DCFF002805D02023226E0320134303
:1013D00023660FE0320029002000FFF7BBFF002842
:1013E000F2D1C02133002A00C9002000FFF7C6FF58
:1013F0000028E9D170BD0000F8B504000120002CE0
:101400004BD000232500A3625D352B78DBB2002B87
:1014100005D122005C321370200001F01FF8022376
:10142000402221682B700B68002093430B60E0235F
:10143000E268DB009A4231D9F0263601B24233D15C
:101440000600206B002803D19A422FD90223236380
:10145000A7686368A0693B4327693B4367693B43CF
:10146000E7693B43276A3B43A76A3B438027BF00AA
:1014700007403B430B60636A000C1A43636B1A43DB
:1014800004231840104306434E60CB69084A0020ED
:101490001340CB61012320662B70F8BD80267601B6
:1014A0009A42CED0A062CCE70600FBE70123CEE74C
:1014B000FFF7FFFFF0B587B0019303005C330393A0
:1014C0001B7804000D0017000226012B00D17CE0E0
:1014D0000123039A1370FEF7FFFE220002905D3293
:1014E0001378DBB2012B6AD11E00002D67D0002FCC
:1014F00065D0023313700023A21D23662364A56305
:10150000A787E78702329387D3872365E364802325
:10151000A2681B029A4205D180232268DB01116870
:101520000B431360402223681968114202D11968E5
:101530000A431A60E021E068C9006268884247D91E
:10154000002A01D0012F07D12A880235DA60E38F03
:10155000A563013B9BB2E3870225E38F002B16D1E5
:10156000029A01992000FFF723FF002800D06DE0C8
:10157000A368002B06D105932368DA6805929B685F
:101580000593059B266E731E9E41F6B217E02268F6
:1015900093682B4209D0A36B19880233D160A363EF
:1015A000E38F013B9BB2E387D7E7FEF795FE029BF3
:1015B000C01A019B9842D0D30133CED00326012319
:1015C0005D3423700023039A1370300007B0F0BD20
:1015D000002A01D0012F0AD1E28F012A1CD92A88C2
:1015E0000235DA60E38FA563023B9BB2E3870225F5
:1015F000E38F002BB4D0226893682B421CD0E18F7C
:10160000A36B012910D919880233D160A363E38F3A
:10161000023B9BB2E387EBE72A781A73A36B013393
:10162000A363E38F013BE0E71B781373A36B0133E4
:10163000A363E38F013BECE7FEF74EFE029BC01A6B
:10164000019B8342D4D80133D2D0B7E7202323664D
:101650008EE70000036807491A680A401A609A6812
:101660002331FF318A439A60202383670023036676
:101670007047C046DFFEFFFF436F10B5212B0DD131
:10168000010052310A880368002A08D180211A68B3
:101690008A431A60402219680A431A6010BDC46C5C
:1016A00022880234D205D20D1A85C4640B88013B0E
:1016B0009BB20B80F2E7436F10B5212B0DD10100D7
:1016C00052310A880368002A08D180211A688A43A7
:1016D0001A60402219680A431A6010BDC26C14785F
:1016E00001321C85C2640B88013B9BB20B80F4E77E
:1016F00070B5446F03000220202C30D1013800293E
:101700002DD0002A2BD080249D686401A54204D1ED
:101710001C69002C01D1014221D11C0070342678B3
:101720000220012E1BD001382070D96419005031DD
:101730000A804A800022DA675A6621325A6780227C
:10174000520195420CD11A69002A09D1054A5A66FC
:101750001A6880230020116820700B43136070BD4D
:10176000014AF4E779160008B716000870B5846FCF
:1017700003000220202C41D1013800293ED0002A4C
:101780003CD080259C686D01AC4204D11D69002DC0
:1017900001D1014232D11D0070352E780220012E78
:1017A0002CD0013828705965190058310A804A80B8
:1017B000802000211A00196640015C32844220D149
:1017C000196900291BD11349118000220121DA6710
:1017D00022329A671A68906801439160802149011A
:1017E0008C4215D11969002912D10B491966902331
:1017F000002011685B000B432870136070BDFF214F
:10180000E2E7002CE0D119690029F8D07F21DBE75D
:101810000249EBE7FF0100008518000825180008C1
:1018200070470000826F10B50368222A23D102009E
:101830005C329B8C12881340426D13700200436D22
:101840005A32013343651388013B9BB213801388DE
:101850009BB2002B0ED10268094C11682140116027
:1018600091682334FF34A14391602022036682678C
:1018700000F0B4FA10BD082299690A439A61F9E7A9
:10188000DFFEFFFF826F10B50368222A21D101001D
:101890005C319C8C0988426D21401180010002322C
:1018A00042655A310A88013A92B20A800A8892B295
:1018B000002A0DD11968094C214019609968233418
:1018C000FF34A143996020230266836700F086FA03
:1018D00010BD082299690A439A61F9E7DFFEFFFF0C
:1018E00070470000F8B503680400DA6950481968C9
:1018F0009E6802420BD12020024200D176E00142D4
:1019000000D173E0236E2000002B65D165E001203B
:101910003500054003D190277F00394266D002424E
:1019200005D0CE0503D51862E66F3043E06702208C
:10193000024206D0002D04D01862E66F0018304332
:10194000E0670420024206D0002D04D01862E66F42
:1019500002383043E067100708D5880601D4002D0F
:1019600004D008201862E56F2843E067802000015A
:10197000024206D04D0104D518622023E06F0343D4
:10198000E367E36F002B28D020231A4206D01942C8
:1019900004D0236E002B01D0200098472368E56F08
:1019A0009B6820005B0602D428231D401AD0FFF755
:1019B00051FE402123689A680A420FD09A68E06E6F
:1019C0008A439A60002809D01A4B4363FEF724FD2E
:1019D000002802D0E06E436B9847F8BD2000FFF767
:1019E0007FFFFAE7FFF77CFFE567F6E7802040031B
:1019F000024206D0750204D51862200000F0E0F91A
:101A0000EBE78020024203D0014201D0636E7AE707
:101A100040200242E1D00142DFD01A6882431A60BE
:101A200020236367002320006366FFF7F9FED4E7F5
:101A30000F080000391A0008406A0023020010B5A0
:101A40005A321380083A1380FFF74AFF10BD000096
:101A500070B504002569A36802682B436569C169F4
:101A60002B431068434D0B432840034313605368D6
:101A70004148256A0340E06803435360A3699068C6
:101A80002B433E4D28400343936080233C481B0278
:101A9000824210D103203B4A126B02403A48805CDC
:101AA000994213D0082828D8FEF740FB4127462743
:101AB000572727275A003548824256D1994236D1B6
:101AC000FFF77CFB636840005B080BE008281ED82A
:101AD000FEF722FBF61D051D151D1D1D1800636870
:101AE00058082B4BC0186168FEF72AFB83B2002010
:101AF0001A002849103A8A420CD9012013E0FFF756
:101B0000A7FADFE76368580880235B02EAE7012051
:101B10000023EDE70F22190091430A001B072168FB
:101B20005B0F1343CB6000232366636670BDFFF732
:101B300045FB63685B0802E063685808164BC018F1
:101B40006168FEF7FDFA83B200201A001149103ACD
:101B50008A42D2D82268D360E5E7FFF779FAE8E74E
:101B60006368580880231B02E9E79942CFD001201F
:101B70000023EAE7F369FFFFFFCFFFFFFFF4FFFF5A
:101B80000038014000100240D827000800440040FF
:101B90000024F400EFFF000000127A00436A30B521
:101BA000DA0706D50168284C4A682240846A224335
:101BB0004A609A0706D50168244C4A682240C46AE4
:101BC00022434A605A0706D50168214C4A682240E0
:101BD000046B22434A601A0706D501681D4C4A6807
:101BE0002240446B22434A60DA0606D501681A4C4B
:101BF0008A682240846B22438A609A0606D501686F
:101C0000164C8A682240C46B22438A605A0610D55B
:101C10000168134D4A68046C2A4022434A608022BE
:101C20005203944205D14A680E4C2240446C224330
:101C30004A601B0606D502680B4953680B40816C4D
:101C40000B43536030BDC046FFFFFDFFFFFFFEFFAB
:101C5000FFFFFBFFFF7FFFFFFFEFFFFFFFDFFFFF48
:101C6000FFFFEFFFFFFF9FFFFFFFF7FFF7B58027A5
:101C700004000E00150001933F012268D369334030
:101C80009B1B59424B41AB4201D000201CE0089BFA
:101C90000133F3D0FEF720FB019B089AC01A23689A
:101CA000824201D3002A10D11A6813490A401A60EF
:101CB0009A68A331FF318A439A6020236367A36740
:101CC0000023032070342370FEBD04211A680A42E9
:101CD000D3D0DA693A42D0D01F621A6806490A4066
:101CE0001A609A68A331FF318A439A6020236367A0
:101CF000A367E367E4E7C0465FFEFFFF73B5002616
:101D00000400C667FEF7E8FA236805001B681B0796
:101D100015D423681B685B070AD580210E4B00226F
:101D20000093C9032B002000FFF7A0FF002811D16A
:101D3000202300206367A367703420700BE08021AC
:101D4000054B32000093890303002000FFF78EFF4C
:101D50000028DED0032076BDFFFFFF0110B5041E72
:101D600001D1012010BD436F002B04D1020070325D
:101D7000137000F063FC2423012122686367136859
:101D800020008B431360FFF763FE0128E9D0636AEC
:101D9000002B02D02000FFF701FF236807495A6893
:101DA00020000A402A215A609A688A439A600122D8
:101DB00019680A431A60FFF7A1FFD3E7FFB7FFFFD7
:101DC0007047000010B50400FEF79EF92100C2B272
:101DD0000148FFF78DFC10BD9003002010B5064AA6
:101DE000064913880C780648C4540133138005480B
:101DF0000122FFF7BBFC10BD74000020D0000020C2
:101E0000D1000020900300200023AF211A0010B55C
:101E1000044C89001819013302708B42FAD1024B2D
:101E20001A8010BDD10000207400002070B5FA2483
:101E3000214D012221492248FFF798FCFFF7E4FFDA
:101E40002800FEF74FFAA4001E48FFF7BBFF200052
:101E5000FEF748FA1C48FFF7B5FFFA204000FEF7EE
:101E600041FA1A48FFF7AEFF2800FEF73BFA184880
:101E7000FFF7A8FF0120FEF735FA1648FFF7A2FF8B
:101E80000120FEF72FFA1448FFF79CFF0120FEF710
:101E900029FA1248FFF796FF0120FEF723FA1048AF
:101EA000FFF790FF0F48FEF71DFA0F48FFF78AFF74
:101EB0002000FEF717FA70BDB80B0000D00000201C
:101EC0009003002022280008292800083428000850
:101ED000422800084D280008572800085B28000801
:101EE000812800081027000067280008F0B50122AB
:101EF0008DB008217648FEF7ABFB7648FFF762FF0E
:101F0000FA204000FEF7EEF9FFF77EFF7248FFF778
:101F100059FFFA204000FEF7E5F97048FFF752FF3D
:101F2000002208216A48FEF793FB002309AD6C4CA0
:101F30002B8023702C236B4AFF3312889A4202D8DD
:101F40002378002B18D06420FEF7CCF922781021DA
:101F50005F48FEF77DFB0E230024012006AA9B1894
:101F6000614A62491C801070002812D1002C01D0F7
:101F70005D4B1870002254E00120FEF7B3F92B8866
:101F800001339BB22B802A88594B9A42D2D9012324
:101F9000CFE71F881D881A881E8803921A884D195A
:101FA00004921A886D7805921A88613D06921A8803
:101FB000CF5D07926A426A419446039A643F8A1849
:101FC00092788E19743A55425541624615407A42CC
:101FD0007A41F6781540653E724272411540049A86
:101FE0008A181779743F7A427A411540059A8A18FF
:101FF0005679693E724272412A40069D4D19AD796B
:102000006D3D6E4275411540079A8A18D279653A3E
:1020100057427A412A404ED0002C02D00121324B47
:102020001970012520216A402948FEF711FB2E4B2B
:102030001B78002B32D00AAC06220021200000F0D1
:10204000A6FB0E2106ABC9180A88284B08889A18E7
:10205000D27E1818007F303A303812010243627085
:102060000A8808889A18127E1818407E303A30384C
:1020700012010243A2700A8809889A18527D5B18DF
:102080009B7D303A1201303B1343E3703223220030
:102090000093D0212E3B1748FEF760FC6420FEF72A
:1020A00021F91548FFF78EFE6420FEF71BF9FFF7B4
:1020B000ABFE0DB0F0BD1D88104E0135ADB21D80D8
:1020C0001D88B54200D04FE7040010004CE7C04621
:1020D00000040048DC27000806280008080000204B
:1020E00080000020740000208D030020D10000201B
:1020F000102700008400002016280008BE020000FF
:1021000007B50120084A5169014351615369002212
:102110000340019311000A30019BFEF7F5F80B20F4
:10212000FEF722F907BDC04600100240F0B589B0A5
:102130001422002103A800F02AFB8020264B000374
:102140005969264F014359615A69254E0240802042
:102150000092009A596980020143596180215A69AD
:10216000C90202400192019A5A6938000A435A6131
:102170005B6900220B4002934F21029BFEF768FA35
:10218000002230001749FEF763FA012400254F238F
:1021900003A938000393049405950695FEF7A8F962
:1021A0009020114B03A9C005049303940594FEF7F6
:1021B0009FF90C4B03A930000393049405950695F1
:1021C000FEF796F92A0021000520FEF79DF805206C
:1021D000FEF7CAF809B0F0BD001002400008004840
:1021E00000040048384000000000111010B5134BE7
:1021F000134C01222360134B200063600023E26034
:10220000A36023616361A361E3612362FEF750FB76
:10221000002801D000F0A6F800212000FEF7CCFC39
:10222000002801D000F09EF800212000FEF7EAFC13
:10223000002801D000F096F810BDC04600540040C0
:10224000840000205D3E302010B5040088B01422C8
:10225000002103A800F09BFA124B22689A421FD17A
:102260008021114CC902626910480A4362616369A6
:1022700003220B400193019BC0230393AE3B0493C5
:1022800003A9113B059306920793FEF731F98021CC
:10229000E26989030A43E261E3690B400293029B0E
:1022A00008B010BD00540040001002400004004877
:1022B00070B5102496B0302200210AA800F067FA09
:1022C0002200002101A800F062FA1422002105A8D2
:1022D00000F05DFAA023022501269B030AA81493AF
:1022E0000A950D960E941295FEF7B0FC0723019304
:1022F0000023310001A8039304930295FEF7DAFE50
:10230000202305A805930894FEF768FF16B070BD5A
:102310001FB5FDF7C5FFFFF7CBFFFFF707FFFFF77F
:1023200065FF00F073F800F06DF9FFF7E9FE002299
:1023300040210A48FEF78CF90E2303AA13700023EC
:1023400053703233D021009305482F3BFEF706FB34
:10235000FFF76CFDFFF7CAFDFEE7C0460008004826
:10236000840000207047000073B507AD2D786E46DD
:10237000ED4306AC24783570E443DB43D243C943D4
:10238000C043802574700D4CB370F27064233171BA
:102390007071ED01694606220948FFF78BF82900A4
:1023A00000222000FEF754F90120FDF79BFF2900D1
:1023B00001222000FEF74CF973BDC046000400481E
:1023C0001404002037B50024E0B20300020001002D
:1023D00001900090FFF7C8FF0B4D01342878FDF7FE
:1023E00081FF0A2CF0D1023CE0B2030002000100A0
:1023F00001900090FFF7B8FF013C2878FDF772FFCD
:10240000002CF1D137BDC04651000020C022114838
:10241000114B10B5036082239200C26002225B0060
:10242000436000230261FF32FF328261C93AFF3A02
:1024300083604361C261036243628362313A036332
:102440000833C2624363FEF7D7FF002801D0FFF7CD
:1024500089FF10BD140400200038004010B50400AE
:1024600088B01422002103A800F091F9114B2268D2
:102470009A421DD18020104BC001D9690143D96116
:102480008021DA69C90202400192019A5A690B4817
:102490000A435A615B690B400293029BA0231B0213
:1024A0000393022303A9049301330693FEF720F854
:1024B00008B010BD00380040001002400004004881
:1024C00001200A4B82B099690143996180219A6980
:1024D000490502400092009ADA690A43DA61DB6931
:1024E0000B400193019B02B07047C04600100240B0
:1024F0007047FEE77047704710B5FDF7E1FE10BD6D
:10250000F0B53226314C85B002AD00960123002291
:10251000D0212000FEF722FA009607232A00D021BE
:102520002000FEF7B1FA2E780F213700284C0F401B
:102530003609677126716A78130012090B40E3703F
:10254000A270A8780140000961702070002A1ED195
:10255000002B1CD1002E1AD1FFF734FF2378002B5B
:1025600010D16378042B0DD1A378002B0AD1E37826
:10257000012B07D12279002A04D16279002A01D1E6
:10258000144A13700120FEF76BF805B0F0BD0197F7
:102590000096FFF7E9FE104D01212A780F48FEF75B
:1025A00057F82A7802210D48FEF752F82A780421BC
:1025B0000A48FEF74DF82A7808210848FEF748F83F
:1025C00001232A7853402B70C8E7C04684000020BE
:1025D000760000201004002052000020000800486F
:1025E00010B50248FDF73BFF10BDC046780400203F
:1025F00010B50248FFF776F910BDC04690030020E1
:10260000704700000B480C4B10B50360E1235B02E0
:1026100043600C22002342618360C36003618361D5
:10262000C36103624362FFF799FB002801D0FFF703
:1026300099FE10BD900300200044004030B5050015
:1026400089B01422002103A800F0A1F8204B2A68C9
:102650009A423BD180221F4B9202D96990201143AC
:10266000D961D969C0051140019101995969114396
:1026700059615B6903A91A400292029B0C230393E0
:102680000A3B049301330693023B0793FDF730FFA7
:10269000114C124B80222360102363600023200022
:1026A000A360E26023616361A361E361FDF782FEE1
:1026B000002801D0FFF756FE1C20AC660022022144
:1026C0006562FDF721FE1C20FDF74EFE09B030BD0E
:1026D0000044004000100240780400204400024002
:1026E0000D4885460D480E490E4A002302E0D45895
:1026F000C4500433C4188C42F9D30B4A0B4C00234A
:1027000001E013600432A242FBD3FFF779FF00F02F
:1027100011F8FFF7FDFDFEE700200020000000207B
:1027200058000020A828000858000020BC04002001
:10273000FEE7000070B500260C4D0D4C641BA41084
:10274000A64209D1002600F02BF80A4D0A4C641B62
:10275000A410A64205D170BDB300EB5898470136CE
:10276000EEE7B300EB5898470136F2E7A0280008DF
:10277000A0280008A0280008A4280008002310B5FD
:102780009A4200D110BDCC5CC4540133F8E7030079
:102790008218934200D1704719700133F9E70000A5
:1027A000F8B5C046F8BC08BC9E467047F8B5C046B0
:0827B000F8BC08BC9E4670470E
:1027B80002030405060708090A0B0C0D0E0F10107A
:1027C8000102030405060708090A0B0C0D0E0F1079
:1027D8000004080241542B43495053544152543D7C
:1027E80022544350222C22776F726C6474696D6591
:1027F8006170692E6F7267222C38300D0A004154BF
:102808002B43495053454E443D37320D0A0041543D
:102818002B434950434C4F534500415445300D0A12
:102828000041542B43575141500D0A0041542B434A
:10283800574D4F44453D310D0A0041542B43574AEB
:1028480041503D2200424C554542455252590022C2
:102858002C2200747970617373774F726479004128
:10286800542B4357484F53544E414D453D224E69D2
:1028780078696520436C6F636B220D0A00000000C5
:102888000000000000010203040607080900000018
:0828980000010203040000002E
:0428A000E900000843
:0428A400C100000867
:1028A8000100000004000000474554202F617069B2
:1028B8002F74696D657A6F6E652F4575726F7065D7
:1028C8002F5072616775652E74787420485454507F
:1028D8002F312E310D0A486F73743A20776F726C5E
:1028E8006474696D656170692E6F72670D0A0D0AEF
:0828F8000032010000127A0019
:04000005080026E1E8
:00000001FF
